:020000040800F2
:100000003005002001010008BB130008C5100008DE
:10001000B913000879010008FB1700080000000070
:10002000000000000000000000000000BF130008F6
:100030007B01000800000000BD130008C113000888
:100040001B0100081B0100081B0100081B01000820
:100050001B0100081B0100081B0100081B01000810
:100060001B0100081B0100081B0100081B01000800
:100070001B0100081B0100081B0100081B010008F0
:100080001B0100081B0100081B0100081B010008E0
:100090001B0100081B0100081B0100081B010008D0
:1000A0001B010008551400081B0100081B01000873
:1000B0001B0100081B010008000000001B010008D4
:1000C0001B01000800000000000000001B010008E8
:1000D000000000001B0100081B01000800000000D8
:1000E0007D0100081B0100081B010008DFF80CD08F
:1000F00000F030F8004800473D18000830050020A7
:100100000648804706480047FEE7FEE7FEE7FEE7B1
:10011000FEE7FEE7FEE7FEE7FEE7FEE70D14000858
:10012000ED000008A0F16101192900D820387047BE
:10013000D2B201E000F8012B491EFBD27047002229
:10014000F6E710B513460A4604461946FFF7F0FFD6
:10015000204610BD064C074D06E0E06840F0010364
:1001600094E8070098471034AC42F6D3FFF7C2FF7B
:100170004C1900086C190008FEE770474FF4004066
:1001800000F02AB870B5044600F01CF90546601C62
:1001900002D004480078044400F014F9401BA04247
:1001A000FAD370BD1000002010B5B0F5004F0ED18D
:1001B0004FF48041064800F0FBF808B1052101E04A
:1001C0006FF00401BDE81040024800F0EBBF10BD25
:1001D000000C014014010020044910B50A680242D5
:1001E00002D00860FFF7E0FF10BD000014040140DA
:1001F0002DE9F84FDFF89C91002409F1040A0AF177
:10020000040B23460F270BF1040EBBE00125A5408C
:100210002A40AA4276D1DFF880C14E68A6EB0C08CE
:1002200066452BD00DDC032E34D005DC36B3012E11
:1002300019D0022E2FD11BE0112E16D0122E2AD14A
:1002400019E0B8F5881F19D006DCB8F5803F15D045
:10025000B8F5801F1FD111E0B8F5001F0ED0B8F51A
:10026000041F18D10AE0CB6815E0CB681B1D12E013
:10027000CB6808330FE0CB680C330CE08B682BB1F4
:10028000012B4FF0080303D0456104E0042302E092
:10029000056100E00023FF2A01D8064601E000F1D5
:1002A00004064FEA840501D9A5F12005D6F800809F
:1002B00007FA05FC28EA0C0803FA05F548EA0508E0
:1002C000C6F800804D68ED005BD5344DAE6946F050
:1002D0000106AE61AD6924F0030605F00105009545
:1002E0002F4D06EB050CDCF80850A607360F07FA71
:1002F00006F825EA0805DFF8AC80404503D14FF049
:10030000000810E03DE0DFF8A080404502D14FF04A
:10031000010808E0DFF89480404502D14FF0020860
:1003200001E04FF0030808FA06F848EA0508CCF89F
:1003300008804D68D9F80060ED034D4601D516439D
:1003400000E096432E604D68DAF80060AD03554634
:1003500001D5164300E096432E604D68DBF800603F
:10036000ED025D4601D5164300E096432E604D68D0
:10037000DEF80060AD02754601D5164300E09643F5
:100380002E60641C0A6832FA04F57FF43FAFBDE8C2
:10039000F88F00000004014000001110001002401E
:1003A0000000014000080140000C01400010014025
:1003B0008068084000D0012070470AB10161704791
:1003C0000904FBE701488068704700001000002026
:1003D0000248816802781144816070471000002053
:1003E000074810B5016841F010010160032000F0DA
:1003F00075F8002000F006F800F024F8002010BD89
:100400000020024070B50D4D04464FF47A712878F3
:10041000B1FBF0F00A490968B1FBF0F000F0ECFA2A
:1004200048B9102C07D200222146501E00F036F8A1
:1004300000206C6070BD012070BD00001000002025
:100440001C0000200C4808B5816941F00101816160
:10045000816901F001010091C16941F08051C161E0
:10046000C06900F0805000900448416821F0E061CC
:1004700041F08061416008BD001002400000014071
:10048000002809DB00F01F02012191404009800093
:1004900000F1E020C0F8001170470000F0B40E4BEE
:1004A0001B680C46C3F30223C3F10705042D00D9D2
:1004B0000425191D072901D2002300E0DB1E0126B7
:1004C00006FA05F1491E214099409E40761E1640CD
:1004D0003143F0BC01F092B90CED00E0064900F0A8
:1004E000070208684FF6FF03184040EA0220034A5B
:1004F00010430860704700000CED00E00000FA05B2
:100500002DE9F0470F46050061D0434E306800F0FA
:100510000700B84209D2306820F007003843306045
:10052000306800F00700B84251D128683B4C810781
:1005300012D5400703D5606840F4E0606060287819
:10054000000703D5606840F4605060606068A96887
:1005500020F0F000084360602878C00728D0686861
:10056000012810D02168022810D0890700292EDA2E
:10057000616821F0030101436160FFF723FF8046BA
:1005800041F288390DE021688903EFE78901EDE741
:10059000FFF718FFA0EB0801494502D90320BDE889
:1005A000F0876068696800F00C00B0EB810FEFD154
:1005B000306800F00700B8420BD9306820F007001F
:1005C00038433060306800F00700B84201D00120A5
:1005D000E5E72878400705D56068E96820F4E06021
:1005E000084360602878000706D56068296920F410
:1005F000605040EAC100606000F038F86168084A65
:10060000C1F30311515CC840064908600648006800
:10061000FFF7F8FE0020C2E7002002400010024071
:10062000341900081C00002014000020044805496B
:1006300000684968044AC1F30221515CC840704710
:100640001C0000200010024044190008044805491D
:1006500000684968044AC1F3C221515CC840704730
:100660001C000020001002404419000812A185B0AF
:100670000FC98DE80F0014A0144A00680490516857
:10068000134801F00C03042B10D0082B0ED1C1F33A
:100690008343C9031DF803000AD5516804AAC1F3B6
:1006A0004041515C0A4A5043B0FBF1F005B070473D
:1006B00008494843FAE70000020304050607080951
:1006C0000A0B0C0D0E0F101001020000001002406A
:1006D00000127A0000093D002DE9F84F040070D0A7
:1006E0002078C04DC00749D06868C0F38100012858
:1006F00007D06868C0F38100022809D16868C00388
:1007000006D52868800339D560680028E7D035E031
:100710006068B0F5803F0BD010B1B0F5A02F11D0BC
:10072000286820F480302860286820F4802002E0C7
:10073000286840F480302860606890B1FFF742FE7E
:1007400006460AE0286840F480202860F0E700BFF1
:10075000FFF738FE801B642873D828688003F7D51C
:100760000CE0FFF72FFE064605E000BFFFF72AFE6C
:10077000801B6428F0D828688003F7D420789A4E2C
:1007800080074FF001094FF0000839D5686810F074
:100790000C0F07D06868C0F38100022809D168688F
:1007A000C00306D42868800714D52069012808D121
:1007B00010E02069B0B1C6F80090FFF703FE0746CD
:1007C00005E00AE1FFF7FEFDC01B0228C4D8286837
:1007D0008007F7D52868616920F0F80040EAC10079
:1007E00028600DE0C6F80080FFF7ECFD074604E046
:1007F000FFF7E8FDC01B022823D828688007F7D43C
:10080000207800072CD57948A169D9B1C0F80090AB
:10081000FFF7D8FD074604E0FFF7D4FDC01B022810
:100820000FD8686A8007F7D571484FF4FA5100680D
:10083000B0FBF1F0009000BF0098411E0091FAD289
:100840000EE080E0C0F80080FFF7BCFD074604E042
:10085000FFF7B8FDC01B022875D8686A8007F7D477
:100860002078400760D5E8690027C00008D4E8690F
:1008700040F08050E861E869012700F08050009066
:100880005C480168C90513D40168834641F480714E
:100890000160FFF797FD824606E000BFFFF792FD7B
:1008A000A0EB0A0064284ED8DBF80000C005F5D59F
:1008B000E06801280AD008B1052813D0286A20F082
:1008C00001002862286A20F0040002E0286A40F053
:1008D00001002862E06841F2883B98B1FFF772FDA1
:1008E00082460BE0286A40F004002862EEE700BF71
:1008F000FFF768FDA0EB0A0159455AD8286A80071E
:10090000F6D50CE0FFF75EFD824605E0FFF75AFDE5
:10091000A0EB0A0159454CD8286A8007F6D41FB1CC
:10092000E86920F08050E861E06988B36968C1F344
:100930008101022944D00228C6F8608004D0FFF764
:1009400041FD044638E034E0FFF73CFD074604E093
:10095000FFF738FDC01B02282BD828688001F7D488
:10096000206AB0F5803F05D16868A16820F40030A6
:1009700008436860D4E908010843696821F47411E8
:1009800008436860C6F86090FFF71CFD044606E067
:1009900025E000BFFFF716FD001B022809D82868D4
:1009A0008001F7D51BE000BFFFF70CFD001B0228FC
:1009B00002D90320BDE8F88F28688001F4D40EE046
:1009C0000128F7D06868226A00F48031914204D18E
:1009D000616A00F47010884201D00120EAE700202B
:1009E000E8E700000010024000004242800442425A
:1009F0001C0000200070004010B5401EB0F1807F48
:100A000001D3012010BD4FF0E02460610F21601779
:100A100000F0F4FE0020A06107202061002010BD3E
:100A20007047704770B590F83C20012A19D0012416
:100A300000F83C4F0222427050F83C3C5A689D68D6
:100A400022F070060A684968324325F08005294380
:100A50005A6050F83C2C91604470002101700846A7
:100A600070BD022070BD10B5040003D094F83D00A5
:100A700010B107E0012010BD002084F83C002046A2
:100A800000F00CF8022084F83D00211D206800F0E1
:100A9000E7FC012084F83D00002010BD08B5006887
:100AA0000B49884212D10B48816941F40061816190
:100AB0008069002200F40060009001211920FFF7F6
:100AC000EDFCBDE808401920FFF7DABC08BD0000C6
:100AD000002C0140001002400168CA6842F0010287
:100AE000CA600068816801F00701062903D0016827
:100AF00041F0010101600020704770B5044690F894
:100B00003C00012817D0012584F83C50022084F8CD
:100B10003D002068826822F0770222F47F428260E2
:100B20000868502830D00DDC20284DD005DC98B363
:100B300010283BD148E0022070BD302844D0402826
:100B400034D139E0602828D0702806D0B0F5805F15
:100B50002CD0B0F5005F29D10AE0CB68D1E90121A2
:100B6000206800F0B8FC2068816841F0770109E056
:100B7000CB68D1E90121206800F0ADFC20688168D4
:100B800041F48041816011E0CA684968206800F042
:100B900057FD5021206807E016E0CA6849682068C0
:100BA00000F05FFD6021206800F09FFC84F83D505C
:100BB000002084F83C0070BDCA684968206800F0D5
:100BC0003FFD40212068EFE7226801461046EBE731
:100BD000704770B50446006801694FF00005C943CD
:100BE000890715D4C168C943890711D4E91E016179
:100BF00001202077206880698007204602D0FFF717
:100C0000E7FF04E000F0BAF8204600F04DF9257740
:100C100020680169C943490717D4C168C943490716
:100C200013D46FF0040101610220207720688069ED
:100C300010F4407F204602D0FFF7CAFF04E000F026
:100C40009DF8204600F030F9257720680169C943F6
:100C5000090716D4C168C943090712D46FF0080107
:100C60000161042020772068C0698007204602D0F7
:100C7000FFF7AEFF04E000F081F8204600F014F921
:100C8000257720680169C943C90617D4C168C943DB
:100C9000C90613D46FF01001016108202077206885
:100CA000C06910F4407F204602D0FFF791FF04E0B6
:100CB00000F064F8204600F0F7F825772068016915
:100CC000C943C90708D1C168C943C90704D1891EEE
:100CD0000161204600F006F920680169C943090650
:100CE00009D4C168C943090605D46FF080010161C8
:100CF0002046FFF795FE20680169C943490609D4DB
:100D0000C168C943490605D46FF04001016120461E
:100D100000F012F920680169C94389060BD4C16843
:100D2000C943890607D46FF0200101612046BDE860
:100D30007040FFF776BE70BD00B585B00021009110
:100D40000191029103910068B0F1804F10D10948E0
:100D5000816941F0040181618069694600F0040005
:100D6000049002200090019003900348FFF740FA9E
:100D700005B000BD0010024000080140704770B58A
:100D8000044690F83C000D4601280DD0012684F859
:100D90003C60022084F83D0042B1042A18D0082AA1
:100DA0002AD00C2A4DD139E0022070BD206800F015
:100DB000A5FB2068816941F0080181612068816993
:100DC00021F004018161206881692A69114311E0E1
:100DD000206800F0BBFB2068816941F400618161FB
:100DE0002068816921F480618161206881692A69B4
:100DF00041EA0221816124E0206800F0D3FB2068F1
:100E0000C16941F00801C1612068C16921F0040194
:100E1000C1612068C1692A69114311E0206800F0AE
:100E2000EDFB2068C16941F40061C1612068C169BE
:100E300021F48061C1612068C1692A6941EA022107
:100E4000C16184F83D60002084F83C0070BD10B59D
:100E5000040003D094F83D0010B107E0012010BD5C
:100E6000002084F83C00204600F00CF8022084F8B2
:100E70003D00211D206800F0F3FA012084F83D00B8
:100E8000002010BD08B50068B0F1804F08D10548BA
:100E9000C16941F00101C161C06900F00100009029
:100EA00008BD0000001002407047000010B5044665
:100EB0000068012200F002FB09492068884203D142
:100EC000416C41F4004141642068816801F00701F0
:100ED000062903D0016841F001010160002010BD26
:100EE000002C014010B50068104988421DD11048FF
:100EF00000F058FC11280F484FF0000102DC00F010
:100F0000E2F801E000F044F90948001D00F04AFC55
:100F1000112808484FF0010103DCBDE8104000F043
:100F2000D2B8BDE8104000F033B910BD002C01402C
:100F30000000002014010020704770B5040004D0A8
:100F400094F83900002510B106E0012070BD84F846
:100F50003850204600F022F8242084F83900206818
:100F6000C16821F40051C160204600F08DFB20686B
:100F7000016921F4904101612068416921F02A0151
:100F800041612068C16841F40051C160E5632020DF
:100F900084F8390084F83A00002070BD30B585B07F
:100FA0000024009401940294039400681449884238
:100FB00024D11448816941F480418161816901F43F
:100FC00080410491816941F00401816180690E4D85
:100FD00000F0040004904FF4007000900220019093
:100FE0000320039069462846FFF702F92815CDE94A
:100FF0000004694628460294FFF7FAF805B030BDB0
:101000000038014000100240000801402DE9F8437B
:10101000044690F83A00994616460D4620284FD1CE
:1010200095B18EB194F83800012849D0012084F898
:1010300038000027E763222084F83A00FFF7C2F95E
:10104000A6858046E68531E00120BDE8F883E08D85
:10105000401EE085A0684346B0F5805F4FF0000277
:101060004FF020012046CDF8009004D000F068FB3E
:1010700098B10320E9E700F063FB0028F9D120696B
:1010800000282068406803D0C1B225F8011B0DE09C
:10109000C0F3080125F8021B08E020690028206839
:1010A000406801D000F07F0005F8010BE08D0028BA
:1010B000CDD1202084F83A0084F838700020C4E7AD
:1010C0000220C2E7FEE770B50D46044602290CD0A7
:1010D000207CA84204D1204600F04EF80220207463
:1010E00001201DB1012D00D1E06070BDA06070BD78
:1010F00070B504460D46022916D015B1012D02D057
:1011000008E0A06800E0E06820B12046BDE870403B
:1011100000F032B8206800F055F82946606800F009
:1011200051F825740220607470BD70B50D460446F8
:10113000022915D015B1012D07D00EE0002120683D
:1011400000F040F80121606805E00121206800F00E
:1011500039F80021606800F035F8657402202074C9
:1011600070BDC0E900120021C16081603221C0E978
:10117000053118688163704710B50446006800F0B7
:1011800045F8606800F042F802202074607410BDD9
:10119000022904D0002219B1012900D1C260704790
:1011A000826070478269511A8161632901DD632180
:1011B00002E0002901DA0021816140690068816351
:1011C0007047000070B50446022917D00C4D69B174
:1011D000012913D1218800222846FFF7EEF8618803
:1011E00001222846BDE87040FFF7E7B821880122B8
:1011F0002846FFF7E2F861880022F2E770BD0000A0
:10120000000C0140018042807047000070B5074D1E
:101210000446018800222846FFF7CFF86188284657
:10122000BDE870400022FFF7C8B80000000C014084
:101230002DE9F04385B000242E48009401940294D7
:101240000394816941F010018161816901F010010D
:101250000491816941F004018161816901F0040117
:101260000491816941F0080181618069DFF888801B
:1012700000F008004FF40055049000222946404633
:10128000FFF79BF8DFF874904FF4BE570022394601
:101290004846FFF792F80095022601250396CDE90E
:1012A000015469464046FEF7A3FF00970396CDE937
:1012B000015469464846FEF79BFF4FF4D040CDE904
:1012C0000004694648460294FEF792FFE803009046
:1012D0000B48CDE9010569464846FEF789FF002223
:1012E00011462820FFF7DAF82820FFF7C9F805B0E3
:1012F000BDE8F0830010024000100140000C0140E6
:101300000000111010B586B0002413480094019419
:101310000294039404940F490594016040F21F3134
:10132000C0E9011442F20F71C0E903144461846101
:10133000FFF799FB4FF48050009069460648FFF78D
:10134000DCFB049404A904480594FFF76BFB06B08A
:1013500010BD0000002C01402000002010B58AB014
:10136000002407941C2168460894FEF7E8FE114803
:101370004FF08041016040F21F31C0E90114632148
:10138000C0E903148461FFF762FD079407A90948C7
:101390000894FFF747FB6020CDE900040294042283
:1013A000694604480494FFF7EAFC0248FFF7C4FCCE
:1013B0000AB010BD60000020FEE77047704770471C
:1013C000FFF706B830B58FB028216846FEF7B7FEA4
:1013D00014210AA8FEF7B3FE01200225049000950F
:1013E000102005900024CDE9075468460994FFF7C2
:1013F00073F90F200A90CDE90B540D9400210AA82F
:101400000E94FFF77DF80FB030BD00000D48016865
:1014100041F00101016041680B4A114041600168DF
:101420000A4A11400160016821F48021016041688D
:1014300021F4FE0141604FF41F0181600449C003A3
:1014400008607047001002400000FFF8FFFFF6FE42
:1014500008ED00E00148FFF7BCBB000020000020C1
:1014600070B50268134B144C4FF08046984203D07D
:10147000B04201D0A04203D122F070054A682A434D
:10148000984203D0B04201D0A04203D122F440746C
:10149000CA6822434C6922F08002224302608A68B3
:1014A000C2620A688262984201D10969016301211E
:1014B000416170BD002C01400004004010B501F0F6
:1014C0001F030121046A99408C430462016A9A4017
:1014D0001143016210BD10B5846842EA032224F46E
:1014E0007F440A432243826010BD826822F070026A
:1014F0000A4342F0070181607047000030B5026A7C
:1015000022F001020262026A4368846924F07305D2
:101510000C682C4322F002058A682A430A4DA8422F
:101520000BD122F00805CA6823F440732A434D69A1
:1015300022F004021D438B692B4343608461496898
:101540004163026230BD0000002C014030B5026AE8
:1015500022F010020262026A436884690D6824F472
:10156000E64444EA05248D6822F0200242EA05128E
:101570000B4DA8420ED1CD6822F0800242EA05123E
:101580004D6923F4406343EA85038D6922F04002EC
:1015900043EA85034360846149688163026230BD28
:1015A000002C014030B5026A22F480720262036AA4
:1015B0004268C46923F4007324F073050C682C435B
:1015C0008D6843EA05230C4DA8420ED1CD6823F463
:1015D000006343EA05234D6922F4405242EA0512B2
:1015E0008D6923F4806342EA05124260C461496850
:1015F000C163036230BD0000002C014030B5026AB7
:1016000022F480520262046A4268C3690D6823F4BE
:10161000E64343EA05238D6824F4005444EA053484
:10162000064DA84204D14D6922F4804242EA851257
:101630004260C36149680164046230BD002C01400E
:1016400010B5036A046A24F001040462846924F07A
:10165000F00444EA021423F00A020A43846102629D
:1016600010BD10B5036A23F0100303628369046A96
:1016700023F4704343EA023224F0A00343EA011149
:101680008261016210BD00002DE9F041044600684E
:101690000169E26821F44051114301612169A068A8
:1016A0000843616908432168CA6841F20C639A43A0
:1016B0000243CA6020684169A26921F44071114364
:1016C00041611E49206864253226884202D1FEF716
:1016D000BDFF01E0FEF7AAFF00EBC00101EB001126
:1016E00060686FF018078000B1FBF0F2B2FBF5F212
:1016F000B1FBF0F37A4303EB8202B1FBF0F306EBAC
:101700000212B2FBF5F2B3FBF5F302F0F00202EBCA
:101710000312B1FBF0F3B1FBF0F0B0FBF5F078434E
:1017200003EB800006EB0010B0FBF5F0216800F041
:101730000F0010448860BDE8F081000000380140CF
:101740002DE9F041984617460E460446069D1DE0D9
:10175000681C1BD02DB1FEF735FEA0EB0800A84297
:1017600014D92068C16821F4D071C1602068416932
:1017700021F001014161202084F8390084F83A0009
:10178000002084F838000320BDE8F081206800685C
:1017900036EA000004D00020B842D9D00020F3E798
:1017A0000120F9E770B5124D044601880122284650
:1017B000FEF703FE0A20FEF7E5FC218800222846FA
:1017C000FEF7FBFD61882846FEF7F2FD0028F9D000
:1017D000FEF7F8FD064661882846FEF7E9FD002879
:1017E000F9D1FEF7EFFD801B00EB001070BD00008B
:1017F000000C0140018042807047FEE70907090E96
:10180000002804DB00F1E02080F80014704700F0AD
:101810000F0000F1E02080F8141D704702E008C8B6
:10182000121F08C1002AFAD170477047002001E05A
:1018300001C1121F002AFBD170470000FEF7D0FD46
:10184000FFF7C0FDFFF7F4FCFFF75CFD37483649B2
:10185000002401604FF41651C0E901140C21C4604A
:10186000C0E904418461C461FFF767FBFFF776FDBF
:101870002E488038FFF730F92C4804214038FFF714
:1018800015FB4FF4005251102948FFF7B3FF2848C9
:101890004FF400625110001DFFF7ACFF2448802276
:1018A00040210830FFF7AEFC21484FF40072511080
:1018B0000C30FFF7A7FC1D4B1D4A403B0C32111F9B
:1018C00003F1B400FFF74DFC184D4FF4FA764035A4
:1018D00016493346322240311448FFF797FB2878E7
:1018E000FEF720FC522813D004DC442808D04C28F2
:1018F00018D10BE0532811D0552813D1002100E056
:1019000001210A487430FFF7F3FB0BE0012100E0EE
:10191000002106487430FFF708FC03E003487430E8
:10192000FFF72AFC2C70D3E700380140A00000200C
:10193000000000200000000000000000010203047D
:101940000607080900000000010203046C190008E2
:1019500000000020200000001C1800088C1900085E
:1019600020000020100500002C18000800000000D6
:101970000000000000000000000000000100000066
:0C19800010000000000000000024F40033
:04000005080000ED02
:00000001FF
